{
  "_format": "hh-sol-artifact-1",
  "contractName": "Bitcoin",
  "sourceName": "contracts/Bitcoin.sol",
  "abi": [
    {
      "inputs": [],
      "stateMutability": "nonpayable",
      "type": "constructor"
    },
    {
      "inputs": [],
      "name": "CalldataMustHaveValidPayload",
      "type": "error"
    },
    {
      "inputs": [],
      "name": "CalldataOverOrUnderFlow",
      "type": "error"
    },
    {
      "inputs": [],
      "name": "CanNotPickMedianOfEmptyArray",
      "type": "error"
    },
    {
      "inputs": [],
      "name": "DataPackageTimestampMustNotBeZero",
      "type": "error"
    },
    {
      "inputs": [],
      "name": "DataPackageTimestampsMustBeEqual",
      "type": "error"
    },
    {
      "inputs": [],
      "name": "EachSignerMustProvideTheSameValue",
      "type": "error"
    },
    {
      "inputs": [],
      "name": "EmptyCalldataPointersArr",
      "type": "error"
    },
    {
      "inputs": [],
      "name": "GetDataServiceIdNotImplemented",
      "type": "error"
    },
    {
      "inputs": [],
      "name": "IncorrectUnsignedMetadataSize",
      "type": "error"
    },
    {
      "inputs": [
        {
          "internalType": "uint256",
          "name": "receivedSignersCount",
          "type": "uint256"
        },
        {
          "internalType": "uint256",
          "name": "requiredSignersCount",
          "type": "uint256"
        }
      ],
      "name": "InsufficientNumberOfUniqueSigners",
      "type": "error"
    },
    {
      "inputs": [],
      "name": "InvalidCalldataPointer",
      "type": "error"
    },
    {
      "inputs": [],
      "name": "RedstonePayloadMustHaveAtLeastOneDataPackage",
      "type": "error"
    },
    {
      "inputs": [
        {
          "internalType": "address",
          "name": "receivedSigner",
          "type": "address"
        }
      ],
      "name": "SignerNotAuthorised",
      "type": "error"
    },
    {
      "inputs": [
        {
          "internalType": "uint256",
          "name": "receivedTimestampSeconds",
          "type": "uint256"
        },
        {
          "internalType": "uint256",
          "name": "blockTimestamp",
          "type": "uint256"
        }
      ],
      "name": "TimestampFromTooLongFuture",
      "type": "error"
    },
    {
      "inputs": [
        {
          "internalType": "uint256",
          "name": "receivedTimestampSeconds",
          "type": "uint256"
        },
        {
          "internalType": "uint256",
          "name": "blockTimestamp",
          "type": "uint256"
        }
      ],
      "name": "TimestampIsTooOld",
      "type": "error"
    },
    {
      "anonymous": false,
      "inputs": [
        {
          "indexed": false,
          "internalType": "uint256",
          "name": "betId",
          "type": "uint256"
        },
        {
          "indexed": false,
          "internalType": "address",
          "name": "opponent",
          "type": "address"
        }
      ],
      "name": "BetJoined",
      "type": "event"
    },
    {
      "anonymous": false,
      "inputs": [
        {
          "indexed": false,
          "internalType": "uint256",
          "name": "betId",
          "type": "uint256"
        },
        {
          "indexed": false,
          "internalType": "address",
          "name": "bettor",
          "type": "address"
        },
        {
          "indexed": false,
          "internalType": "uint256",
          "name": "predictedPrice",
          "type": "uint256"
        },
        {
          "indexed": false,
          "internalType": "bool",
          "name": "bettorGuessIsHigher",
          "type": "bool"
        },
        {
          "indexed": false,
          "internalType": "uint256",
          "name": "amount",
          "type": "uint256"
        },
        {
          "indexed": false,
          "internalType": "uint256",
          "name": "betExpiration",
          "type": "uint256"
        }
      ],
      "name": "BetPlaced",
      "type": "event"
    },
    {
      "anonymous": false,
      "inputs": [
        {
          "indexed": false,
          "internalType": "uint256",
          "name": "betId",
          "type": "uint256"
        },
        {
          "indexed": false,
          "internalType": "address",
          "name": "winner",
          "type": "address"
        },
        {
          "indexed": false,
          "internalType": "uint256",
          "name": "currentPrice",
          "type": "uint256"
        },
        {
          "indexed": false,
          "internalType": "uint256",
          "name": "predictedPrice",
          "type": "uint256"
        }
      ],
      "name": "BetSettled",
      "type": "event"
    },
    {
      "inputs": [
        {
          "internalType": "uint256[]",
          "name": "values",
          "type": "uint256[]"
        }
      ],
      "name": "aggregateValues",
      "outputs": [
        {
          "internalType": "uint256",
          "name": "",
          "type": "uint256"
        }
      ],
      "stateMutability": "view",
      "type": "function"
    },
    {
      "inputs": [
        {
          "internalType": "uint256",
          "name": "",
          "type": "uint256"
        }
      ],
      "name": "bets",
      "outputs": [
        {
          "internalType": "address payable",
          "name": "bettor",
          "type": "address"
        },
        {
          "internalType": "uint256",
          "name": "predictedPrice",
          "type": "uint256"
        },
        {
          "internalType": "bool",
          "name": "bettorGuessIsHigher",
          "type": "bool"
        },
        {
          "internalType": "uint256",
          "name": "amount",
          "type": "uint256"
        },
        {
          "internalType": "bool",
          "name": "isActive",
          "type": "bool"
        },
        {
          "internalType": "address payable",
          "name": "opponent",
          "type": "address"
        },
        {
          "internalType": "uint256",
          "name": "betExpiration",
          "type": "uint256"
        }
      ],
      "stateMutability": "view",
      "type": "function"
    },
    {
      "inputs": [],
      "name": "checkBetsReadyForSettlement",
      "outputs": [
        {
          "internalType": "uint256[]",
          "name": "",
          "type": "uint256[]"
        }
      ],
      "stateMutability": "view",
      "type": "function"
    },
    {
      "inputs": [],
      "name": "extractTimestampsAndAssertAllAreEqual",
      "outputs": [
        {
          "internalType": "uint256",
          "name": "extractedTimestamp",
          "type": "uint256"
        }
      ],
      "stateMutability": "pure",
      "type": "function"
    },
    {
      "inputs": [
        {
          "internalType": "address",
          "name": "signerAddress",
          "type": "address"
        }
      ],
      "name": "getAuthorisedSignerIndex",
      "outputs": [
        {
          "internalType": "uint8",
          "name": "",
          "type": "uint8"
        }
      ],
      "stateMutability": "view",
      "type": "function"
    },
    {
      "inputs": [],
      "name": "getDataServiceId",
      "outputs": [
        {
          "internalType": "string",
          "name": "",
          "type": "string"
        }
      ],
      "stateMutability": "view",
      "type": "function"
    },
    {
      "inputs": [],
      "name": "getLatestBtcPrice",
      "outputs": [
        {
          "internalType": "uint256",
          "name": "",
          "type": "uint256"
        }
      ],
      "stateMutability": "view",
      "type": "function"
    },
    {
      "inputs": [],
      "name": "getUniqueSignersThreshold",
      "outputs": [
        {
          "internalType": "uint8",
          "name": "",
          "type": "uint8"
        }
      ],
      "stateMutability": "view",
      "type": "function"
    },
    {
      "inputs": [
        {
          "internalType": "uint256",
          "name": "_betId",
          "type": "uint256"
        }
      ],
      "name": "joinBet",
      "outputs": [],
      "stateMutability": "payable",
      "type": "function"
    },
    {
      "inputs": [],
      "name": "nextBetId",
      "outputs": [
        {
          "internalType": "uint256",
          "name": "",
          "type": "uint256"
        }
      ],
      "stateMutability": "view",
      "type": "function"
    },
    {
      "inputs": [],
      "name": "owner",
      "outputs": [
        {
          "internalType": "address",
          "name": "",
          "type": "address"
        }
      ],
      "stateMutability": "view",
      "type": "function"
    },
    {
      "inputs": [
        {
          "internalType": "uint256",
          "name": "_predictedPrice",
          "type": "uint256"
        },
        {
          "internalType": "bool",
          "name": "_bettorGuessIsHigher",
          "type": "bool"
        },
        {
          "internalType": "uint256",
          "name": "_betExpiration",
          "type": "uint256"
        }
      ],
      "name": "placeBet",
      "outputs": [],
      "stateMutability": "payable",
      "type": "function"
    },
    {
      "inputs": [
        {
          "internalType": "uint256",
          "name": "_betId",
          "type": "uint256"
        },
        {
          "internalType": "uint256",
          "name": "price",
          "type": "uint256"
        }
      ],
      "name": "settleBet",
      "outputs": [],
      "stateMutability": "nonpayable",
      "type": "function"
    },
    {
      "inputs": [
        {
          "internalType": "uint256",
          "name": "receivedTimestampMilliseconds",
          "type": "uint256"
        }
      ],
      "name": "validateTimestamp",
      "outputs": [],
      "stateMutability": "view",
      "type": "function"
    }
  ],
  "bytecode": "0x608060405234801561001057600080fd5b50336000806101000a81548173ffffffffffffffffffffffffffffffffffffffff021916908373ffffffffffffffffffffffffffffffffffffffff160217905550600060028190555061290b806100686000396000f3fe6080604052600436106100dd5760003560e01c806382b927991161007f578063b24ebfcc11610059578063b24ebfcc1461029a578063c274583a146102d7578063f50b2efe14610302578063f90c49241461032b576100dd565b806382b92799146102195780638da5cb5b146102445780639aca27921461026f576100dd565b806339fb3f45116100bb57806339fb3f451461016a5780633ce142f51461018657806355a547d5146101c35780637b9629db146101ee576100dd565b80630d2cbe13146100e25780631a38cac61461010b57806322af00fa14610127575b600080fd5b3480156100ee57600080fd5b5061010960048036038101906101049190611c09565b610356565b005b61012560048036038101906101209190611c81565b610567565b005b34801561013357600080fd5b5061014e60048036038101906101499190611cd4565b6107b5565b6040516101619796959493929190611d60565b60405180910390f35b610184600480360381019061017f9190611cd4565b610851565b005b34801561019257600080fd5b506101ad60048036038101906101a89190611e0d565b610aa4565b6040516101ba9190611e56565b60405180910390f35b3480156101cf57600080fd5b506101d8610b38565b6040516101e59190611e71565b60405180910390f35b3480156101fa57600080fd5b50610203610ca8565b6040516102109190611e71565b60405180910390f35b34801561022557600080fd5b5061022e610cdd565b60405161023b9190611f4a565b60405180910390f35b34801561025057600080fd5b50610259610e79565b6040516102669190611f7b565b60405180910390f35b34801561027b57600080fd5b50610284610e9d565b6040516102919190611e71565b60405180910390f35b3480156102a657600080fd5b506102c160048036038101906102bc91906120ef565b610ea3565b6040516102ce9190611e71565b60405180910390f35b3480156102e357600080fd5b506102ec610eb5565b6040516102f991906121b7565b60405180910390f35b34801561030e57600080fd5b5061032960048036038101906103249190611cd4565b610ef2565b005b34801561033757600080fd5b50610340610efe565b60405161034d9190611e56565b60405180910390f35b60006001600084815260200190815260200160002090508060040160009054906101000a900460ff166103be576040517f08c379a00000000000000000000000000000000000000000000000000000000081526004016103b590612225565b60405180910390fd5b8060050154421015610405576040517f08c379a00000000000000000000000000000000000000000000000000000000081526004016103fc90612291565b60405180910390fd5b600081600101548310159050600081801561042e57508260020160009054906101000a900460ff165b8061045257508115801561045157508260020160009054906101000a900460ff16155b5b15610483578260000160009054906101000a900473ffffffffffffffffffffffffffffffffffffffff1690506104ab565b8260040160019054906101000a900473ffffffffffffffffffffffffffffffffffffffff1690505b8073ffffffffffffffffffffffffffffffffffffffff166108fc600285600301546104d691906122e0565b9081150290604051600060405180830381858888f19350505050158015610501573d6000803e3d6000fd5b5060008360040160006101000a81548160ff0219169083151502179055507f11a22d497c329e14d872e0a7dac587549da712f0e005562916d7acc434cc8a3285828686600101546040516105589493929190612381565b60405180910390a15050505050565b600034116105aa576040517f08c379a00000000000000000000000000000000000000000000000000000000081526004016105a190612438565b60405180910390fd5b4281116105ec576040517f08c379a00000000000000000000000000000000000000000000000000000000081526004016105e3906124ca565b60405180910390fd5b600060026000815480929190610601906124ea565b9190505590506040518060e001604052803373ffffffffffffffffffffffffffffffffffffffff1681526020018581526020018415158152602001348152602001600115158152602001600073ffffffffffffffffffffffffffffffffffffffff168152602001838152506001600083815260200190815260200160002060008201518160000160006101000a81548173ffffffffffffffffffffffffffffffffffffffff021916908373ffffffffffffffffffffffffffffffffffffffff1602179055506020820151816001015560408201518160020160006101000a81548160ff0219169083151502179055506060820151816003015560808201518160040160006101000a81548160ff02191690831515021790555060a08201518160040160016101000a81548173ffffffffffffffffffffffffffffffffffffffff021916908373ffffffffffffffffffffffffffffffffffffffff16021790555060c082015181600501559050507f1ac0631ae377ce866a6cd417c00e890fcf04ee83c9c6403e1d04f50f434870368133868634876040516107a796959493929190612532565b60405180910390a150505050565b60016020528060005260406000206000915090508060000160009054906101000a900473ffffffffffffffffffffffffffffffffffffffff16908060010154908060020160009054906101000a900460ff16908060030154908060040160009054906101000a900460ff16908060040160019054906101000a900473ffffffffffffffffffffffffffffffffffffffff16908060050154905087565b60006001600083815260200190815260200160002090508060040160009054906101000a900460ff166108b9576040517f08c379a00000000000000000000000000000000000000000000000000000000081526004016108b090612225565b60405180910390fd5b3373ffffffffffffffffffffffffffffffffffffffff168160000160009054906101000a900473ffffffffffffffffffffffffffffffffffffffff1673ffffffffffffffffffffffffffffffffffffffff160361094b576040517f08c379a0000000000000000000000000000000000000000000000000000000008152600401610942906125df565b60405180910390fd5b600073ffffffffffffffffffffffffffffffffffffffff168160040160019054906101000a900473ffffffffffffffffffffffffffffffffffffffff1673ffffffffffffffffffffffffffffffffffffffff16146109de576040517f08c379a00000000000000000000000000000000000000000000000000000000081526004016109d59061264b565b60405180910390fd5b80600301543414610a24576040517f08c379a0000000000000000000000000000000000000000000000000000000008152600401610a1b906126dd565b60405180910390fd5b338160040160016101000a81548173ffffffffffffffffffffffffffffffffffffffff021916908373ffffffffffffffffffffffffffffffffffffffff1602179055507f7f737563bc6765fe3374430df34adffc917ae44d5f183880c1331e558185d0e18233604051610a989291906126fd565b60405180910390a15050565b6000730c39486f770b26f5527bbbf942726537986cd7eb73ffffffffffffffffffffffffffffffffffffffff168273ffffffffffffffffffffffffffffffffffffffff1603610af65760009050610b33565b816040517fec459bc0000000000000000000000000000000000000000000000000000000008152600401610b2a9190611f7b565b60405180910390fd5b919050565b600080610b43610f07565b90506000610b5082611018565b61ffff16905060008103610b90576040517f8552ff3c00000000000000000000000000000000000000000000000000000000815260040160405180910390fd5b600282610b9d9190612726565b915060005b81811015610ca2576000610bb584611074565b9050600080606886610bc79190612726565b90506000816000369050610bdb919061275a565b90508035925060008365ffffffffffff1603610c23576040517f336dc9d000000000000000000000000000000000000000000000000000000000815260040160405180910390fd5b60008803610c3b578265ffffffffffff169750610c7d565b878365ffffffffffff1614610c7c576040517fd9d1f46500000000000000000000000000000000000000000000000000000000815260040160405180910390fd5b5b8387610c899190612726565b9650505050508080610c9a906124ea565b915050610ba2565b50505090565b6000807f42544300000000000000000000000000000000000000000000000000000000009050610cd7816110b3565b91505090565b6060600060025467ffffffffffffffff811115610cfd57610cfc611fac565b5b604051908082528060200260200182016040528015610d2b5781602001602082028036833780820191505090505b5090506000805b600254811015610dc9576001600082815260200190815260200160002060040160009054906101000a900460ff168015610d82575060016000828152602001908152602001600020600501544210155b15610db65780838381518110610d9b57610d9a61278e565b5b6020026020010181815250508180610db2906124ea565b9250505b8080610dc1906124ea565b915050610d32565b5060008167ffffffffffffffff811115610de657610de5611fac565b5b604051908082528060200260200182016040528015610e145781602001602082028036833780820191505090505b50905060005b82811015610e6f57838181518110610e3557610e3461278e565b5b6020026020010151828281518110610e5057610e4f61278e565b5b6020026020010181815250508080610e67906124ea565b915050610e1a565b5080935050505090565b60008054906101000a900473ffffffffffffffffffffffffffffffffffffffff1681565b60025481565b6000610eae8261114f565b9050919050565b60606040518060400160405280601281526020017f72656473746f6e652d6d61696e2d64656d6f0000000000000000000000000000815250905090565b610efb81611161565b50565b60006001905090565b60008060203603356602ed57011e000081166602ed57011e00001491505080610f5c576040517fe7764c9e00000000000000000000000000000000000000000000000000000000815260040160405180910390fd5b60008036905060291115610f9c576040517f5796f78a00000000000000000000000000000000000000000000000000000000815260040160405180910390fd5b602936033590506000600960038362ffffff16610fb99190612726565b610fc39190612726565b90506000369050600282610fd79190612726565b111561100f576040517fc30a7bd700000000000000000000000000000000000000000000000000000000815260040160405180910390fd5b80935050505090565b6000806020836110289190612726565b90506000369050811115611068576040517f5796f78a00000000000000000000000000000000000000000000000000000000815260040160405180910390fd5b80360335915050919050565b60008060006110828461122b565b91509150604e8160206110959190612726565b836110a091906122e0565b6110aa9190612726565b92505050919050565b600080600167ffffffffffffffff8111156110d1576110d0611fac565b5b6040519080825280602002602001820160405280156110ff5781602001602082028036833780820191505090505b50905082816000815181106111175761111661278e565b5b60200260200101818152505061112c816112a1565b60008151811061113f5761113e61278e565b5b6020026020010151915050919050565b600061115a826112b3565b9050919050565b60006103e88261117191906127ec565b9050804210156111d357603c4282611189919061275a565b11156111ce5780426040517fb6b0916d0000000000000000000000000000000000000000000000000000000081526004016111c592919061281d565b60405180910390fd5b611227565b60b481426111e1919061275a565b11156112265780426040517f0321d0b500000000000000000000000000000000000000000000000000000000815260040161121d92919061281d565b60405180910390fd5b5b5050565b60008060008060006041866112409190612726565b905060006112676020836112549190612726565b60003690506113a790919063ffffffff16565b9050803593506112816003826113a790919063ffffffff16565b9050803592508362ffffff1695508263ffffffff16945050505050915091565b60606112ac826113bd565b9050919050565b6000808251036112ef576040517f9e198af900000000000000000000000000000000000000000000000000000000815260040160405180910390fd5b6112f8826115cc565b60006002835161130891906127ec565b905060006002845161131a9190612846565b0361138357600061136b84600184611332919061275a565b815181106113435761134261278e565b5b602002602001015185848151811061135e5761135d61278e565b5b602002602001015161161f565b905060028161137a91906127ec565b925050506113a2565b8281815181106113965761139561278e565b5b60200260200101519150505b919050565b600081836113b5919061275a565b905092915050565b60606000825167ffffffffffffffff8111156113dc576113db611fac565b5b60405190808252806020026020018201604052801561140a5781602001602082028036833780820191505090505b5090506000835167ffffffffffffffff81111561142a57611429611fac565b5b6040519080825280602002602001820160405280156114585781602001602082028036833780820191505090505b5090506000845167ffffffffffffffff81111561147857611477611fac565b5b6040519080825280602002602001820160405280156114ab57816020015b60608152602001906001900390816114965790505b50905060005b855181101561153e576114c2610efe565b60ff1667ffffffffffffffff8111156114de576114dd611fac565b5b60405190808252806020026020018201604052801561150c5781602001602082028036833780820191505090505b508282815181106115205761151f61278e565b5b60200260200101819052508080611536906124ea565b9150506114b1565b506000611549610f07565b9050600061155682611018565b61ffff1690506002826115699190612726565b91506000604051905060005b828110156115b457600061158c8a89898989611635565b9050808561159a9190612726565b9450826040525080806115ac906124ea565b915050611575565b506115bf848761192d565b9650505050505050919050565b805160208201602082028101815b8181101561161857825b8181101561160c5781518151808210156115ff578084528183525b50506020810190506115e4565b506020810190506115da565b5050505050565b6000818361162d9190612726565b905092915050565b6000806000806116448561122b565b91509150600080600060606000600d6116726020886116639190612726565b89611a7a90919063ffffffff16565b61167c9190612726565b905060006116a360688c6116909190612726565b60003690506113a790919063ffffffff16565b905060006116d58360418e6116b89190612726565b6116c29190612726565b60003690506113a790919063ffffffff16565b90506116e1838261170f565b935082602085012094508135965061172b565b60006040519050818152602081019050818101604052919050565b600061171a836116f4565b838382376020810391505092915050565b61173c8765ffffffffffff16610ef2565b6117528560418e61174d9190612726565b611a90565b955061175d86610aa4565b60ff1699505050505050505060008060005b848110156118f857611782888583611b0f565b809350819450505060005b8c518110156118e4578c81815181106117a9576117a861278e565b5b602002602001015184036118d15760008b82815181106117cc576117cb61278e565b5b602002602001015190506117e08189611b95565b15801561181057506117f0610efe565b60ff168d83815181106118065761180561278e565b5b6020026020010151105b156118cb578c82815181106118285761182761278e565b5b60200260200101805180919061183d906124ea565b81525050838b83815181106118555761185461278e565b5b602002602001015160018f85815181106118725761187161278e565b5b6020026020010151611884919061275a565b815181106118955761189461278e565b5b6020026020010181815250506118ab8189611bae565b8c83815181106118be576118bd61278e565b5b6020026020010181815250505b506118e4565b80806118dc906124ea565b91505061178d565b5080806118f0906124ea565b91505061176f565b505050816020826119099190612726565b61191391906122e0565b604e61191f9190612726565b935050505095945050505050565b60606000835167ffffffffffffffff81111561194c5761194b611fac565b5b60405190808252806020026020018201604052801561197a5781602001602082028036833780820191505090505b5090506000611987610efe565b60ff16905060005b8551811015611a6e57818582815181106119ac576119ab61278e565b5b60200260200101511015611a13578481815181106119cd576119cc61278e565b5b6020026020010151826040517f2b13aef5000000000000000000000000000000000000000000000000000000008152600401611a0a92919061281d565b60405180910390fd5b6000611a38878381518110611a2b57611a2a61278e565b5b6020026020010151610ea3565b905080848381518110611a4e57611a4d61278e565b5b602002602001018181525050508080611a66906124ea565b91505061198f565b50819250505092915050565b60008183611a8891906122e0565b905092915050565b6000806000808436038035935060208101905080359250602081019050803560001a91505060018682858560405160008152602001604052604051611ad89493929190612890565b6020604051602081039080840390855afa158015611afa573d6000803e3d6000fd5b50505060206040510351935050505092915050565b6000806000604e86611b219190612726565b90506000611b62611b53602088611b389190612726565b876001611b459190612726565b611a7a90919063ffffffff16565b8361161f90919063ffffffff16565b90506000611b7d8260003690506113a790919063ffffffff16565b90508035945060208101359350505050935093915050565b600080826001901b841690506000811191505092915050565b6000816001901b8317905092915050565b6000604051905090565b600080fd5b600080fd5b6000819050919050565b611be681611bd3565b8114611bf157600080fd5b50565b600081359050611c0381611bdd565b92915050565b60008060408385031215611c2057611c1f611bc9565b5b6000611c2e85828601611bf4565b9250506020611c3f85828601611bf4565b9150509250929050565b60008115159050919050565b611c5e81611c49565b8114611c6957600080fd5b50565b600081359050611c7b81611c55565b92915050565b600080600060608486031215611c9a57611c99611bc9565b5b6000611ca886828701611bf4565b9350506020611cb986828701611c6c565b9250506040611cca86828701611bf4565b9150509250925092565b600060208284031215611cea57611ce9611bc9565b5b6000611cf884828501611bf4565b91505092915050565b600073ffffffffffffffffffffffffffffffffffffffff82169050919050565b6000611d2c82611d01565b9050919050565b611d3c81611d21565b82525050565b611d4b81611bd3565b82525050565b611d5a81611c49565b82525050565b600060e082019050611d75600083018a611d33565b611d826020830189611d42565b611d8f6040830188611d51565b611d9c6060830187611d42565b611da96080830186611d51565b611db660a0830185611d33565b611dc360c0830184611d42565b98975050505050505050565b6000611dda82611d01565b9050919050565b611dea81611dcf565b8114611df557600080fd5b50565b600081359050611e0781611de1565b92915050565b600060208284031215611e2357611e22611bc9565b5b6000611e3184828501611df8565b91505092915050565b600060ff82169050919050565b611e5081611e3a565b82525050565b6000602082019050611e6b6000830184611e47565b92915050565b6000602082019050611e866000830184611d42565b92915050565b600081519050919050565b600082825260208201905092915050565b6000819050602082019050919050565b611ec181611bd3565b82525050565b6000611ed38383611eb8565b60208301905092915050565b6000602082019050919050565b6000611ef782611e8c565b611f018185611e97565b9350611f0c83611ea8565b8060005b83811015611f3d578151611f248882611ec7565b9750611f2f83611edf565b925050600181019050611f10565b5085935050505092915050565b60006020820190508181036000830152611f648184611eec565b905092915050565b611f7581611dcf565b82525050565b6000602082019050611f906000830184611f6c565b92915050565b600080fd5b6000601f19601f8301169050919050565b7f4e487b7100000000000000000000000000000000000000000000000000000000600052604160045260246000fd5b611fe482611f9b565b810181811067ffffffffffffffff8211171561200357612002611fac565b5b80604052505050565b6000612016611bbf565b90506120228282611fdb565b919050565b600067ffffffffffffffff82111561204257612041611fac565b5b602082029050602081019050919050565b600080fd5b600061206b61206684612027565b61200c565b9050808382526020820190506020840283018581111561208e5761208d612053565b5b835b818110156120b757806120a38882611bf4565b845260208401935050602081019050612090565b5050509392505050565b600082601f8301126120d6576120d5611f96565b5b81356120e6848260208601612058565b91505092915050565b60006020828403121561210557612104611bc9565b5b600082013567ffffffffffffffff81111561212357612122611bce565b5b61212f848285016120c1565b91505092915050565b600081519050919050565b600082825260208201905092915050565b60005b83811015612172578082015181840152602081019050612157565b60008484015250505050565b600061218982612138565b6121938185612143565b93506121a3818560208601612154565b6121ac81611f9b565b840191505092915050565b600060208201905081810360008301526121d1818461217e565b905092915050565b7f426574206973206e6f7420616374697665000000000000000000000000000000600082015250565b600061220f601183612143565b915061221a826121d9565b602082019050919050565b6000602082019050818103600083015261223e81612202565b9050919050565b7f42657420686173206e6f74207965742065787069726564000000000000000000600082015250565b600061227b601783612143565b915061228682612245565b602082019050919050565b600060208201905081810360008301526122aa8161226e565b9050919050565b7f4e487b7100000000000000000000000000000000000000000000000000000000600052601160045260246000fd5b60006122eb82611bd3565b91506122f683611bd3565b925082820261230481611bd3565b9150828204841483151761231b5761231a6122b1565b5b5092915050565b6000819050919050565b600061234761234261233d84611d01565b612322565b611d01565b9050919050565b60006123598261232c565b9050919050565b600061236b8261234e565b9050919050565b61237b81612360565b82525050565b60006080820190506123966000830187611d42565b6123a36020830186612372565b6123b06040830185611d42565b6123bd6060830184611d42565b95945050505050565b7f42657420616d6f756e74206d7573742062652067726561746572207468616e2060008201527f3000000000000000000000000000000000000000000000000000000000000000602082015250565b6000612422602183612143565b915061242d826123c6565b604082019050919050565b6000602082019050818103600083015261245181612415565b9050919050565b7f45787069726174696f6e2074696d65206d75737420626520696e20746865206660008201527f7574757265000000000000000000000000000000000000000000000000000000602082015250565b60006124b4602583612143565b91506124bf82612458565b604082019050919050565b600060208201905081810360008301526124e3816124a7565b9050919050565b60006124f582611bd3565b91507fffffffffffffffffffffffffffffffffffffffffffffffffffffffffffffffff8203612527576125266122b1565b5b600182019050919050565b600060c0820190506125476000830189611d42565b6125546020830188611f6c565b6125616040830187611d42565b61256e6060830186611d51565b61257b6080830185611d42565b61258860a0830184611d42565b979650505050505050565b7f426574746f722063616e6e6f74206a6f696e207468656972206f776e20626574600082015250565b60006125c9602083612143565b91506125d482612593565b602082019050919050565b600060208201905081810360008301526125f8816125bc565b9050919050565b7f42657420616c72656164792068617320616e206f70706f6e656e740000000000600082015250565b6000612635601b83612143565b9150612640826125ff565b602082019050919050565b6000602082019050818103600083015261266481612628565b9050919050565b7f4a6f696e696e6720616d6f756e74206d757374206d617463682074686520626560008201527f7420616d6f756e74000000000000000000000000000000000000000000000000602082015250565b60006126c7602883612143565b91506126d28261266b565b604082019050919050565b600060208201905081810360008301526126f6816126ba565b9050919050565b60006040820190506127126000830185611d42565b61271f6020830184611f6c565b9392505050565b600061273182611bd3565b915061273c83611bd3565b9250828201905080821115612754576127536122b1565b5b92915050565b600061276582611bd3565b915061277083611bd3565b9250828203905081811115612788576127876122b1565b5b92915050565b7f4e487b7100000000000000000000000000000000000000000000000000000000600052603260045260246000fd5b7f4e487b7100000000000000000000000000000000000000000000000000000000600052601260045260246000fd5b60006127f782611bd3565b915061280283611bd3565b925082612812576128116127bd565b5b828204905092915050565b60006040820190506128326000830185611d42565b61283f6020830184611d42565b9392505050565b600061285182611bd3565b915061285c83611bd3565b92508261286c5761286b6127bd565b5b828206905092915050565b6000819050919050565b61288a81612877565b82525050565b60006080820190506128a56000830187612881565b6128b26020830186611e47565b6128bf6040830185612881565b6128cc6060830184612881565b9594505050505056fea2646970667358221220c669e36457e4961a5d7974b72a08a1ae2a91a37595c6955b9214a96b5f55701a64736f6c63430008110033",
  "linkReferences": {},
  "deployedLinkReferences": {}
}